:10000000FAC0000026C1000024C1000022C1000087
:1000100020C100001EC100001CC100001AC1000068
:1000200018C1000016C1000014C1000012C1000078
:1000300010C100000EC100000CC100000AC1000088
:1000400008C1000006C1000004C1000002C1000098
:1000500000C10000FEC00000FCC00000A9C50000F7
:10006000F8C000006FC5000044C50000F2C00000E9
:10007000F0C00000EEC00000ECC00000EAC00000CC
:10008000E8C00000E6C00000E4C00000E2C00000DC
:10009000E0C00000DEC00000DCC00000D3C50000EE
:1000A000D8C00000D6C00000D4C00000D2C00000FC
:1000B000D0C00000CEC00000CCC00000CAC000000C
:1000C000C8C00000C6C00000C4C00000C2C000001C
:1000D000C0C00000BEC00000BCC00000BAC000002C
:1000E000B8C00000DC01DF01CE01D201D60116024A
:1000F000E301E701ED01F101F501FB01FF0103025D
:10010000160209020D02110200002200250028003B
:100110002B002E003100340002010000050108010F
:100120000B0105050505070508080808020202027B
:100130000A0A080804040404010101010101010183
:100140000303030303030303040707070C0C0C0C4E
:100150000C0C0C0C02020202060606060606060637
:100160000B0B0B0B0B0B0B0B0102102020080810C4
:100170002040102040800201020108040201010217
:1001800004081020408080402010080402018004F0
:10019000020180402010080402010804020101024B
:1001A0000408102040800102040810204080000054
:1001B0000A0B02090C0D0E080703040100000000E1
:1001C000000000000000000000000000000000002F
:1001D00000000000000000000000121110000000EC
:1001E000000000000000000000000000000000000F
:1001F00000000000530711241FBECFEFD1E2DEBF85
:10020000CDBF00E00CBF24E0A8E5B2E001C01D9224
:10021000A631B207E1F712E0A0E0B2E0E0EBF1E1D5
:1002200000E00BBF02C007900D92A835B107D9F7C7
:1002300010E0CBEFD0E000E005C021970109802F4E
:10024000FE01A8D7CA3FD10780E00807B1F776D6EC
:10025000ADC7D6CEE5E2F3E0A089B18982E08C9308
:10026000A485B5851C92A685B7858FEC8C93108EDE
:10027000A489B58986E08C93A289B3898C91806129
:100280008C93A289B3898C9188608C93A289B3895D
:100290008C9180688C930288F389E02D80818F7D1A
:1002A00080830895382F20912403909123032132D5
:1002B00008F049C0809100038111FCCF42E04093D7
:1002C00000033093FF023FEF3093FE021092FD02D5
:1002D0002093FC02A3E0B3E04CED52E0FA013E2F84
:1002E000341B321718F43D913193F9CF1092DB0291
:1002F0002091DB02990F922B9093DB029091DA020E
:10030000913061F41092DA029091DB029093BB007D
:100310009091BC0093FDF8CF95EC01C095EE9093C1
:10032000BC00909100039230E1F39091FE029F3F58
:1003300079F08091FE02803241F08091FE0280339C
:1003400031F084E005C081E003C082E001C083E0B9
:10035000109202031092240310920103089590E07A
:10036000FC01E255FE4F4491FC01E859FE4F2491F7
:10037000FC01EE5DFE4F9491992309F465C044237E
:1003800009F454C050E0FA013197E231F10508F068
:100390004DC08827EE58FF4F8F4FFCC680918000DC
:1003A0008F7707C0809180008F7D03C0809180008F
:1003B000877F809380003AC084B58F7702C084B570
:1003C0008F7D84BD33C08091B0008F7703C0809152
:1003D000B0008F7D8093B00029C0809190008F770E
:1003E00007C0809190008F7D03C080919000877F2F
:1003F000809390001BC08091A0008F7707C08091F0
:10040000A0008F7D03C08091A000877F8093A00013
:100410000DC0809120018F7707C0809120018F7DD2
:1004200003C080912001877F80932001E92FF0E0B5
:10043000EE0FFF1FE85FFE4FA591B4918FB7F894C0
:10044000EC912E2B2C938FBF0895CF92DF92EF92D9
:10045000FF920F931F932FB7F894C090D602D090BD
:10046000D702E090D802F090D9022FBFDC01CB0177
:100470008C0D9D1DAE1DBF1D4FB7F8940091D60287
:100480001091D7022091D8023091D9024FBF0C159C
:100490001D052E053F0528F080179107A207B30719
:1004A00058F71F910F91FF90EF90DF90CF90089534
:1004B000CF92DF92EF92FF920F931F93CF93DF9330
:1004C0006C017A018B01C0E0D0E0CE15DF0589F028
:1004D000D8016D918D01D601ED91FC910190F081D3
:1004E000E02DC6011995892B11F47E0102C02196D9
:1004F000ECCFC701DF91CF911F910F91FF90EF904B
:10050000DF90CF900895FC01538D448D252F30E06E
:10051000842F90E0821B930B541710F0CF96089510
:1005200001970895FC01918D828D981761F0828D5D
:10053000DF01A80FB11D5D968C91928D9F5F9F7317
:10054000928F90E008958FEF9FEF0895FC01918DB9
:10055000828D981731F0828DE80FF11D858D90E026
:1005600008958FEF9FEF0895FC01918D228D892FC3
:1005700090E0805C9F4F821B91098F7399270895AB
:1005800085E293E0F1DF21E0892B09F420E0822F5E
:100590000895FC01848DDF01A80FB11DA35ABF4F40
:1005A0002C91848D90E001968F739927848FA68972
:1005B000B7892C93A089B1898C9180648C93938D99
:1005C000848D981306C00288F389E02D80818F7D89
:1005D00080830895EF92FF920F931F93CF93DF9341
:1005E000EC0181E0888F9B8D8C8D981305C0E88984
:1005F000F989808185FD23C0F62E0B8D10E00F5FF9
:100600001F4F0F731127E02E8C8DE8120BC00FB611
:1006100007FCFACFE889F989808185FFF5CFCE0103
:10062000B8DFF2CF8B8DFE01E80FF11DE35AFF4FCB
:10063000F0820B8FEA89FB898081806207C0EE8996
:10064000FF896083E889F98980818064808381E003
:1006500090E0DF91CF911F910F91FF90EF9008955F
:10066000CF93DF93EC01888D8823C1F0EA89FB8961
:10067000808185FD05C0A889B9898C9186FD0EC051
:100680000FB607FCF5CF808185FFF2CFA889B98925
:100690008C9185FFEDCFCE017CDFE8CFDF91CF914C
:1006A000089580E090E0892B19F06ADF811125C060
:1006B00080E090E0892B41F080E090E0892B21F0F0
:1006C0000E94000081111CC080E090E0892B41F065
:1006D00080E090E0892B21F00E940000811113C07E
:1006E00080E090E0892BA1F080E090E0892B81F000
:1006F0000E94000081110AC008950E940000D8CF16
:100700000E940000E1CF0E940000EACF0C9400009C
:10071000089585ED8093BC008091BC0084FDFCCFE2
:1007200010920003089540917A02262F30E0240FA2
:10073000311D21323105DCF4209100032430C9F44D
:10074000FC0180E090E0861758F430917A02219104
:10075000DC01A85ABD4FA30FB11D2C930196F3CF16
:1007600080917A02680F60937A0280E0089581E0B8
:10077000089582E008950895E091C0028091BF023B
:10078000E81730F4F0E0E156FD4F808190E00895E5
:100790008FEF9FEF08959091C0028091BF0298174C
:1007A00050F4E92FF0E0E156FD4F208130E09F5FEB
:1007B0009093C00202C02FEF3FEFC90108958091CE
:1007C000BF0290E02091C002821B91090895CF9250
:1007D000DF92EF92FF920F931F93CF93DF937C01F1
:1007E000262F972F8A0180910103882391F0C62F2D
:1007F000D72F6E01C40ED51ECC15DD0569F06991A9
:10080000D701ED91FC910190F081E02DC701199580
:10081000F3CF642F822F87DFC801DF91CF911F9123
:100820000F91FF90EF90DF90CF900895CF93DF93DB
:100830001F92CDB7DEB76983209101032223D1F047
:1008400020912403203240F021E030E0FC0133838A
:10085000228380E090E014C080910203E82FF0E052
:10086000ED5FFC4F998190838F5F809302038093AB
:10087000240304C061E0CE01019655DF81E090E0E1
:100880000F90DF91CF910895CF93DF931F92CDB753
:10089000DEB7FC018081806291E090930103809338
:1008A000230310920203109224038AE094E0498308
:1008B000BDDF4981642F8AE094E0B8DF81E00F90CA
:1008C000DF91CF91EFCCCF93DF93EC01683008F04C
:1008D00067E068831092C0021092BF021092020378
:1008E000109224031092000381E08093FF02109283
:1008F000DA0284E134DD85E132DD8091B9008E7F5A
:100900008093B9008091B9008D7F8093B90088E40D
:100910008093B80085E48093BC004FEF60E0CE0187
:10092000B3DF4FEF61E0CE01DF91CF91ADCF0895FE
:1009300080E090E008956115710579F0FB01019068
:100940000020E9F73197AF01461B570BDC01ED9111
:10095000FC910280F381E02D199480E090E00895ED
:10096000CF93DF93EC019881906281E08093010343
:100970009093230310920203109224038AE094E0E0
:1009800055DF81E08FDC8881909100039111FCCFCD
:1009900091E0909300039093FF022FEF2093FE02CB
:1009A0001092FD021092FC029093DB029091DB0208
:1009B0008062880F892B8093DB028091DA0281307C
:1009C00061F41092DA028091DB028093BB00809187
:1009D000BC0083FDF8CF85EC01C085EE8093BC00A0
:1009E000809100038130E1F38091FD02811103C009
:1009F0008091FD0201C081E0ACEDB2E02FE932E070
:100A0000F9019E2F921B981718F49D919193F9CF9D
:100A10001092C0028093BF028AE094E0BCDEDF91B6
:100A2000CF910895EF92FF920F931F93CF93DF938F
:100A30001F92CDB7DEB77C0101E0683008F400E01A
:100A4000162F1770602FC70149838ADF498144231D
:100A500069F041E050E060E070E004C0440F551FD1
:100A6000661F771F1A95D2F7482B0DC041E050E062
:100A700060E070E004C0440F551F661F771F1A9591
:100A8000D2F740954823602FC7010F90DF91CF9197
:100A90001F910F91FF90EF90F7CE1F93CF93DF93AD
:100AA000C82F162FD82FD770883010F065E101C0FD
:100AB00064E185ED92E054DF41E050E060E070E0F9
:100AC00004C0440F551F661F771FDA95D2F7112314
:100AD00011F0482B02C040954823C83010F063E164
:100AE00001C062E185ED92E0DF91CF911F91CCCE04
:100AF00059D31F920F920FB60F9211240BB60F927B
:100B00002F933F934F935F936F937F938F939F9315
:100B1000AF93BF93EF93FF9385E293E03ADDFF91AC
:100B2000EF91BF91AF919F918F917F916F915F9165
:100B30004F913F912F910F900BBE0F900FBE0F90D2
:100B40001F9018951F920F920FB60F9211240BB69B
:100B50000F922F938F939F93EF93FF93E091350321
:100B6000F09136038081E0913B03F0913C0382FDDC
:100B700012C0908180913E038F5F8F7320913F035D
:100B8000821751F0E0913E03F0E0EB5DFC4F958F52
:100B900080933E0301C08081FF91EF919F918F91DF
:100BA0002F910F900BBE0F900FBE0F901F901895B6
:100BB0001F920F920FB60F9211242F933F938F9392
:100BC0009F93AF93BF938091D6029091D702A0914B
:100BD000D802B091D9023091C50223E0230F2D37FE
:100BE00020F40196A11DB11D05C026E8230F029631
:100BF000A11DB11D2093C5028093D6029093D70208
:100C0000A093D802B093D9028091C1029091C20200
:100C1000A091C302B091C4020196A11DB11D8093A1
:100C2000C1029093C202A093C302B093C402BF91C9
:100C3000AF919F918F913F912F910F900FBE0F9089
:100C40001F9018951F920F920FB60F9211240BB69A
:100C50000F922F933F934F935F936F937F938F9355
:100C60009F93AF93BF93EF93FF938091B900887FD9
:100C7000803609F49CC068F5883209F45BC090F4B2
:100C8000803109F454C038F4882309F4F6C0883060
:100C900009F44DC0F5C0883109F44CC0803209F424
:100CA0005DC0EEC0803409F468C048F4803309F4B4
:100CB00055C0883309F0E4C08093FE02D8C0803567
:100CC00009F44FC0883509F45DC0883409F0D8C0F4
:100CD000D6C0883909F4C7C0A8F4883709F467C0BA
:100CE00038F4883609F463C0803709F460C0C8C09E
:100CF000883809F4B8C0803909F45FC0803809F039
:100D0000BFC05BC0803B09F486C038F4803A09F468
:100D100066C0883A09F47FC0B3C0803C09F4A7C01C
:100D2000883C09F4A4C0883B09F48AC0A9C080911A
:100D3000DB0210C09091FD028091FC02981770F5C3
:100D4000E091FD0281E08E0F8093FD02F0E0E4521D
:100D5000FD4F80818093BB0085EC86C08093FE02AE
:100D60008EC0E091FD0281E08E0F8093FD028091A4
:100D7000BB00F0E0E452FD4F80839091FD02809132
:100D8000FC026EC0E091FD0281E08E0F8093FD02B7
:100D90008091BB00F0E0E452FD4F80838091FF0220
:100DA00081116DC081E08093DA0284EA61C083E042
:100DB0008093000310929E02CFCF80919E028032DA
:100DC00008F051C0E0919E0281E08E0F80939E0258
:100DD0008091BB00F0E0E258FD4F8083BDCF85ECF1
:100DE0008093BC001092000380919E02803230F408
:100DF000E0919E02F0E0E258FD4F108260919E0269
:100E000070E0E0917C02F0917D028EE792E019950E
:100E100010929E0235C084E08093000310927B0202
:100E200010927A02E0917802F091790219958091FE
:100E30007A02811105C081E080937A0210925802F3
:100E4000E0917B0281E08E0F80937B02F0E0E85A14
:100E5000FD4F80818093BB0090917B0280917A024C
:100E6000981708F479CF85E88093BC0009C085EC19
:100E70008093BC001092000303C01092FE0249DC74
:100E8000FF91EF91BF91AF919F918F917F916F9162
:100E90005F914F913F912F910F900BBE0F900FBE1E
:100EA0000F901F901895E5E2F3E01382128288EE0E
:100EB00093E0A0E0B0E084839583A683B78324E029
:100EC00032E03183208325EC30E03587248724EC21
:100ED00030E03787268720EC30E0318B208B21EC07
:100EE00030E0338B228B22EC30E0358B248B26ECE8
:100EF00030E0378B268B118E128E138E148EE2EC1F
:100F0000F3E01682178210861186128613861486E5
:100F1000158616861786108A118A128A138A148AF1
:100F2000158AEAE0F4E01382128284839583A68313
:100F3000B78386E192E0918380830895789484B5A5
:100F4000826084BD84B5816084BD85B5826085BDC5
:100F500085B5816085BD80916E00816080936E0053
:100F60001092810080918100826080938100809145
:100F700081008160809381008091800081608093F6
:100F800080008091B10084608093B1008091B000B6
:100F900081608093B0008091910082608093910085
:100FA0008091910081608093910080919000816098
:100FB000809390008091A10082608093A100809135
:100FC000A10081608093A1008091A0008160809346
:100FD000A0008091210182608093210180912101F4
:100FE00081608093210180912001816080932001A4
:100FF00080917A00846080937A0080917A00826088
:1010000080937A0080917A00816080937A00809149
:101010007A00806880937A001092C10010920604D2
:101020001092070410920804109209041092C4034D
:101030001092C5031092C6031092C70368EB7BE0C1
:1010400080E090E002DA85E293E0909305048093DB
:10105000040400D92FB7F8948091D6029091D7025A
:10106000A091D802B091D9022FBF8093C40390936E
:10107000C503A093C603B093C70364E272E08091F6
:1010800004049091050457DC6AE070E080E090E091
:10109000DCD981E08093D80366E372E085E293E0D7
:1010A0004ADC63E372E085E293E045DCD3D860E09C
:1010B00084ED92E008DC62E086EC92E004DCC0E0C3
:1010C00041E06C2F84ED92E0ADDC41E06C2F86ECCA
:1010D00092E0A8DCCF5FC03199F761E085ED92E046
:1010E000F2DB63E087EC92E0EEDBC0E040E06C2FE7
:1010F00085ED92E097DC40E06C2F87EC92E092DC8B
:10110000CF5FC03199F768E472E085E293E013DCC9
:1011100063E372E085E293E00EDC62E184ED92E04D
:101120001FDC182F1170C12ED12CD092D302C09287
:10113000D20262E184ED92E013DC86958170D82FB3
:10114000E82EF12CF092D102E092D00262E184ED1F
:1011500092E006DC82FB882780F9C82F90E090930C
:10116000CF028093CE02D092CD02C092CC02F092F8
:10117000CB02E092CA029093C9028093C802612F09
:1011800080E08BDC6D2F81E088DC6C2F82E085DCD9
:1011900088DAC3CFEE0FFF1F881F8BBF0790F69131
:1011A000E02D199481E090E0F89400C0F894FFCF0E
:1011B00000000000EA02580283023003B4029202E7
:1011C000A602000000001604E7039804BB03DF0337
:1011D000CB03BC03564D4450565F317C315F564DB6
:1011E0004450560D0A002D2D2D5345545550205373
:1011F000544152542D2D2D002D2D2D534554555015
:0812000020454E442D2D2D0068
:00000001FF
