:10000000FAC0000028C1000026C1000024C1000081
:1000100022C1000020C100001EC100001CC1000060
:100020001AC1000018C1000016C1000014C1000070
:1000300012C1000010C100000EC100000CC1000080
:100040000AC1000008C1000006C1000004C1000090
:1000500002C1000000C10000FEC00000B3C50000E6
:10006000FAC0000079C500004EC50000F4C00000D1
:10007000F2C00000F0C00000EEC00000ECC00000C4
:10008000EAC00000E8C00000E6C00000E4C00000D4
:10009000E2C00000E0C00000DEC00000DDC50000DE
:1000A000DAC00000D8C00000D6C00000D4C00000F4
:1000B000D2C00000D0C00000CEC00000CCC0000004
:1000C000CAC00000C8C00000C6C00000C4C0000014
:1000D000C2C00000C0C00000BEC00000BCC0000024
:1000E000BAC00000DF01E201D101D501D901190236
:1000F000E601EA01F001F401F801FE010202060244
:1001000019020C021002140200002200250028002F
:100110002B002E003100340002010000050108010F
:100120000B0105050505070508080808020202027B
:100130000A0A080804040404010101010101010183
:100140000303030303030303040707070C0C0C0C4E
:100150000C0C0C0C02020202060606060606060637
:100160000B0B0B0B0B0B0B0B0102102020080810C4
:100170002040102040800201020108040201010217
:1001800004081020408080402010080402018004F0
:10019000020180402010080402010804020101024B
:1001A0000408102040800102040810204080000054
:1001B0000A0B02090C0D0E080703040100000000E1
:1001C000000000000000000000000000000000002F
:1001D00000000000000000000000121110000000EC
:1001E000000000000000000000000000000000000F
:1001F000000000005D0711241FBECFEFD1E2DEBF7B
:10020000CDBF00E00CBF24E0ACE6B2E001C01D921F
:10021000AE32B207E1F712E0A0E0B2E0E0E0F4E1D4
:1002200000E00BBF02C007900D92AC36B107D9F7C2
:1002300010E0CBEFD0E000E006C021970109802F4D
:10024000FE010E94F209CA3FD10780E00807A9F722
:100250007FD60C94FE09D4CEEDE3F3E0A089B189FA
:1002600082E08C93A485B5851C92A685B7858FEC1A
:100270008C93108EA489B58986E08C93A289B3896A
:100280008C9180618C93A289B3898C9188608C93C6
:10029000A289B3898C9180688C930288F389E02DC0
:1002A00080818F7D80830895382F20913C03909129
:1002B0003B03213208F049C0809118038111FCCF23
:1002C00042E040931803309317033FEF3093160337
:1002D0001092150320931403ABE1B3E044EF52E016
:1002E000FA013E2F341B321718F43D913193F9CFA8
:1002F0001092F3022091F302990F922B9093F30244
:100300009091F202913061F41092F2029091F30216
:100310009093BB009091BC0093FDF8CF95EC01C089
:1003200095EE9093BC00909118039230E1F3909178
:1003300016039F3F79F080911603803241F080913F
:100340001603803331F084E005C081E003C082E011
:1003500001C083E010921A0310923C03109219031B
:10036000089590E0FC01E255FE4F4491FC01E859EC
:10037000FE4F2491FC01EE5DFE4F9491992309F408
:1003800066C0442309F455C050E0FA013197E231C8
:10039000F10508F04EC08827EE58FF4F8F4F0C94A0
:1003A000F209809180008F7707C0809180008F7D57
:1003B00003C080918000877F809380003AC084B51D
:1003C0008F7702C084B58F7D84BD33C08091B0002B
:1003D0008F7703C08091B0008F7D8093B00029C0DB
:1003E000809190008F7707C0809190008F7D03C02F
:1003F00080919000877F809390001BC08091A00027
:100400008F7707C08091A0008F7D03C08091A000EE
:10041000877F8093A0000DC0809120018F7707C057
:10042000809120018F7D03C080912001877F809380
:100430002001E92FF0E0EE0FFF1FE85FFE4FA591CE
:10044000B4918FB7F894EC912E2B2C938FBF089515
:10045000CF92DF92EF92FF920F931F93CF93DF9390
:100460006C017A018B01C0E0D0E0CE15DF0589F088
:10047000D8016D918D01D601ED91FC910190F08133
:10048000E02DC6011995892B11F47E0102C0219639
:10049000ECCFC701DF91CF911F910F91FF90EF90AB
:1004A000DF90CF900895FC01538D448D252F30E0CF
:1004B000842F90E0821B930B541710F0CF96089571
:1004C00001970895FC01918D828D981761F0828DBE
:1004D000DF01A80FB11D5D968C91928D9F5F9F7378
:1004E000928F90E008958FEF9FEF0895FC01918D1A
:1004F000828D981731F0828DE80FF11D858D90E087
:1005000008958FEF9FEF0895FC01918D228D892F23
:1005100090E0805C9F4F821B91098F73992708950B
:100520008DE393E0F1DF21E0892B09F420E0822FB5
:100530000895FC01848DDF01A80FB11DA35ABF4FA0
:100540002C91848D90E001968F739927848FA689D2
:10055000B7892C93A089B1898C9180648C93938DF9
:10056000848D981306C00288F389E02D80818F7DE9
:1005700080830895EF92FF920F931F93CF93DF93A1
:10058000EC0181E0888F9B8D8C8D981305C0E889E4
:10059000F989808185FD23C0F62E0B8D10E00F5F59
:1005A0001F4F0F731127E02E8C8DE8120BC00FB672
:1005B00007FCFACFE889F989808185FFF5CFCE0164
:1005C000B8DFF2CF8B8DFE01E80FF11DE35AFF4F2C
:1005D000F0820B8FEA89FB898081806207C0EE89F7
:1005E000FF896083E889F98980818064808381E064
:1005F00090E0DF91CF911F910F91FF90EF900895C0
:10060000CF93DF93EC01888D8823C1F0EA89FB89C1
:10061000808185FD05C0A889B9898C9186FD0EC0B1
:100620000FB607FCF5CF808185FFF2CFA889B98985
:100630008C9185FFEDCFCE017CDFE8CFDF91CF91AC
:10064000089580E090E0892B19F06ADF811125C0C0
:1006500080E090E0892B41F080E090E0892B21F050
:100660000E94000081111CC080E090E0892B41F0C5
:1006700080E090E0892B21F00E940000811113C0DE
:1006800080E090E0892BA1F080E090E0892B81F060
:100690000E94000081110AC008950E940000D8CF76
:1006A0000E940000E1CF0E940000EACF0C940000FD
:1006B00008952FB7F8946091DA027091DB0280916F
:1006C000DC029091DD022FBF089585ED8093BC0080
:1006D0008091BC0084FDFCCF1092180308954091D6
:1006E0008E02262F30E0240F311D21323105DCF43B
:1006F000209118032430C9F4FC0180E090E08617B3
:1007000058F430918E022191DC01A459BD4FA30F02
:10071000B11D2C930196F3CF80918E02680F6093E8
:100720008E0280E0089581E0089582E008950895A2
:10073000E091D4028091D302E81730F4F0E0ED5458
:10074000FD4F808190E008958FEF9FEF0895909185
:10075000D4028091D302981750F4E92FF0E0ED54C1
:10076000FD4F208130E09F5F9093D40202C02FEFB5
:100770003FEFC90108958091D30290E02091D40207
:10078000821B91090895CF92DF92EF92FF920F930F
:100790001F93CF93DF937C01262F972F8A0180919F
:1007A0001903882391F0C62FD72F6E01C40ED51ED2
:1007B000CC15DD0569F06991D701ED91FC910190AF
:1007C000F081E02DC7011995F3CF642F822F87DFC9
:1007D000C801DF91CF911F910F91FF90EF90DF90B3
:1007E000CF900895CF93DF931F92CDB7DEB7698383
:1007F000209119032223D1F020913C03203240F0B4
:1008000021E030E0FC013383228380E090E014C0DB
:1008100080911A03E82FF0E0E55EFC4F9981908308
:100820008F5F80931A0380933C0304C061E0CE0184
:10083000019655DF81E090E00F90DF91CF91089510
:10084000CF93DF931F92CDB7DEB7FC01808180622A
:1008500091E09093190380933B0310921A03109236
:100860003C0382E294E04983BDDF4981642F82E248
:1008700094E0B8DF81E00F90DF91CF9115CDCF9359
:10088000DF93EC01683008F067E068831092D402CF
:100890001092D30210921A0310923C031092180384
:1008A00081E0809317031092F20284E15ADD85E122
:1008B00058DD8091B9008E7F8093B9008091B90096
:1008C0008D7F8093B90088E48093B80085E480939D
:1008D000BC004FEF60E0CE01B3DF4FEF61E0CE012F
:1008E000DF91CF91ADCF089580E090E0089561153C
:1008F000710579F0FB0101900020E9F73197AF0114
:10090000461B570BDC01ED91FC910280F381E02D39
:10091000199480E090E008954F925F926F927F92D9
:10092000EF92FF920F931F93CF93DF93CDB7DEB774
:10093000A1970FB6F894DEBF0FBECDBF7C01FA01C0
:10094000CB0119A2223008F42AE08E010F5D1F4F5F
:10095000422E512C612C712CBF01A301920120D594
:10096000F901CA01015011096A3014F4605D01C037
:10097000695CD8016C93232B242B252B69F7B801D4
:10098000C701B5DFA1960FB6F894DEBF0FBECDBF8D
:10099000DF91CF911F910F91FF90EF907F906F901B
:1009A0005F904F9008950F931F93CF93DF93EC01C7
:1009B0009EDF8C0163E372E0CE0199DF800F911F0F
:1009C000DF91CF911F910F910895CF93DF93EC01A9
:1009D0009881906281E08093190390933B03109279
:1009E0001A0310923C0382E294E0FCDE81E05CDCBE
:1009F0008881909118039111FCCF91E09093180396
:100A0000909317032FEF2093160310921503109263
:100A100014039093F3029091F3028062880F892B64
:100A20008093F3028091F202813061F41092F2021D
:100A30008091F3028093BB008091BC0083FDF8CFCE
:100A400085EC01C085EE8093BC0080911803813055
:100A5000E1F380911503811103C08091150301C05A
:100A600081E0A4EFB2E023EB32E0F9019E2F921B6C
:100A7000981718F49D919193F9CF1092D402809316
:100A8000D30282E294E063DEDF91CF910895EF928A
:100A9000FF920F931F93CF93DF931F92CDB7DEB7D3
:100AA0007C0101E0683008F400E0162F1770602F19
:100AB000C70149838ADF498141110DC041E050E0FF
:100AC00060E070E004C0440F551F661F771F1A9541
:100AD000D2F7482B0DC041E050E060E070E004C068
:100AE000440F551F661F771F1A95D2F7409548236C
:100AF000602FC7010F90DF91CF911F910F91FF9051
:100B0000EF909ECE77D41F920F920FB60F921124C2
:100B10000BB60F922F933F934F935F936F937F93F7
:100B20008F939F93AF93BF93EF93FF938DE393E0E6
:100B300000DDFF91EF91BF91AF919F918F917F91D8
:100B40006F915F914F913F912F910F900BBE0F903E
:100B50000FBE0F901F9018951F920F920FB60F9215
:100B600011240BB60F922F938F939F93EF93FF93C4
:100B7000E0914D03F0914E038081E0915303F09199
:100B8000540382FD12C09081809156038F5F8F7352
:100B900020915703821751F0E0915603F0E0E35C97
:100BA000FC4F958F8093560301C08081FF91EF9198
:100BB0009F918F912F910F900BBE0F900FBE0F90B2
:100BC0001F9018951F920F920FB60F9211242F931A
:100BD0003F938F939F93AF93BF938091DA0290914D
:100BE000DB02A091DC02B091DD023091D90223E05A
:100BF000230F2D3720F40196A11DB11D05C026E855
:100C0000230F0296A11DB11D2093D9028093DA0211
:100C10009093DB02A093DC02B093DD028091D502B9
:100C20009091D602A091D702B091D8020196A11D51
:100C3000B11D8093D5029093D602A093D702B093B2
:100C4000D802BF91AF919F918F913F912F910F90BB
:100C50000FBE0F901F9018951F920F920FB60F9214
:100C600011240BB60F922F933F934F935F936F9383
:100C70007F938F939F93AF93BF93EF93FF93809155
:100C8000B900887F803609F49CC068F5883209F481
:100C90005BC090F4803109F454C038F4882309F41F
:100CA000F6C0883009F44DC0F5C0883109F44CC055
:100CB000803209F45DC0EEC0803409F468C048F4A5
:100CC000803309F455C0883309F0E4C080931603DB
:100CD000D8C0803509F44FC0883509F45DC0883428
:100CE00009F0D8C0D6C0883909F4C7C0A8F488373D
:100CF00009F467C038F4883609F463C0803709F412
:100D000060C0C8C0883809F4B8C0803909F45FC031
:100D1000803809F0BFC05BC0803B09F486C038F45E
:100D2000803A09F466C0883A09F47FC0B3C0803CB9
:100D300009F4A7C0883C09F4A4C0883B09F48AC020
:100D4000A9C08091F30210C0909115038091140303
:100D5000981770F5E091150381E08E0F80931503CD
:100D6000F0E0EC50FD4F80818093BB0085EC86C0A5
:100D7000809316038EC0E091150381E08E0F80935F
:100D800015038091BB00F0E0EC50FD4F8083909103
:100D90001503809114036EC0E091150381E08E0F5E
:100DA000809315038091BB00F0E0EC50FD4F8083F1
:100DB0008091170381116DC081E08093F20284EA73
:100DC00061C083E0809318031092B202CFCF80916C
:100DD000B202803208F051C0E091B20281E08E0F81
:100DE0008093B2028091BB00F0E0EE56FD4F80830D
:100DF000BDCF85EC8093BC00109218038091B202A5
:100E0000803230F4E091B202F0E0EE56FD4F1082F5
:100E10006091B20270E0E0919002F091910282E95B
:100E200092E019951092B20235C084E080931803C5
:100E300010928F0210928E02E0918C02F0918D023E
:100E4000199580918E02811105C081E080938E02F8
:100E500010926C02E0918F0281E08E0F80938F02DE
:100E6000F0E0E459FD4F80818093BB0090918F02A8
:100E700080918E02981708F479CF85E88093BC00A2
:100E800009C085EC8093BC001092180303C0109237
:100E900016031BDCFF91EF91BF91AF919F918F9152
:100EA0007F916F915F914F913F912F910F900BBE6A
:100EB0000F900FBE0F901F901895EDE3F3E0138293
:100EC000128288EE93E0A0E0B0E084839583A6834D
:100ED000B78324E032E03183208325EC30E035878E
:100EE000248724EC30E03787268720EC30E0318BF4
:100EF000208B21EC30E0338B228B22EC30E0358BE1
:100F0000248B26EC30E0378B268B118E128E138EBD
:100F1000148EEAEDF3E0168217821086118612868F
:100F200013861486158616861786108A118A128AE9
:100F3000138A148A158AE2E2F4E01382128284830F
:100F40009583A683B78386E192E091838083089599
:100F5000789484B5826084BD84B5816084BD85B594
:100F6000826085BD85B5816085BD80916E008160A0
:100F700080936E0010928100809181008260809346
:100F80008100809181008160809381008091800048
:100F90008160809380008091B10084608093B10073
:100FA0008091B00081608093B00080919100826058
:100FB0008093910080919100816080939100809155
:100FC00090008160809390008091A1008260809366
:100FD000A1008091A10081608093A1008091A00078
:100FE00081608093A0008091210182608093210123
:100FF0008091210181608093210180912001816095
:101000008093200180917A00846080937A0080919F
:101010007A00826080937A0080917A008160809368
:101020007A0080917A00806880937A001092C100E3
:1010300010921E0410921F0410922004109221049A
:101040001092DC031092DD031092DE031092DF0396
:1010500030DB2B013C014B015C0128EB820E2BE0C5
:10106000921EA11CB11C25DB64157505860597052C
:1010700028F086169706A806B906A8F78DE393E030
:1010800090931D0480931C04E7D864E272E0809181
:101090001C0490911D042BDC0CDB2B013C014B014B
:1010A0005C013AE0830E911CA11CB11C02DB6415AB
:1010B00075058605970528F086169706A806B906D1
:1010C000A8F781E08093F00366E372E08DE393E09C
:1010D0006ADCC2D860E087EE92E0D1DB40E060E0FD
:1010E00087EE92E0D4DC40E061E087EE92E0CFDC76
:1010F00040E062E087EE92E0CADC61E08EED92E0D3
:10110000BEDB41E060E08EED92E0C1DC68E472E0BD
:101110008DE393E048DC84EF882E99249394A12CEE
:10112000B12CC7DA672B682B692B39F4C2DA62302D
:1011300071058105910508F4E5C0BBDA6093EE0204
:101140007093EF028093F0029093F1024090EA02D4
:101150005090EB026090EC027090ED026415750502
:101160008605970540F46093EA027093EB02809342
:10117000EC029093ED024090EA025090EB026090F6
:10118000EC027090ED029B01AC012419350946096F
:10119000570929013A013AEF4316510461047104D9
:1011A00008F4B0C06093EA027093EB028093EC0203
:1011B0009093ED028092E8039092E903A092EA03F3
:1011C000B092EB031092EC031092ED031092EE0339
:1011D0001092EF038091E0039091E103A091E2036C
:1011E000B091E3038093E4039093E503A093E603B7
:1011F000B093E7035EDA6093E0037093E1038093BA
:10120000E2039093E30355DA2B013C0168E572E0B9
:1012100080911C0490911D046ADB2AE041E050E0BB
:1012200060E070E080911C0490911D0475DB6FE517
:1012300072E080911C0490911D0459DB2AE0B301F7
:10124000A20180911C0490911D0466DB61E672E0AE
:1012500080911C0490911D044ADB8091E0039091E1
:10126000E103A091E203B091E303B301A201481BA3
:10127000590B6A0B7B0B2AE080911C0490911D0492
:101280004BDB61E672E080911C0490911D042FDB22
:101290004091E0035091E1036091E2037091E30318
:1012A0008091E4039091E503A091E603B091E703F8
:1012B000481B590B6A0B7B0B2AE080911C04909110
:1012C0001D042ADB63E672E080911C0490911D04EA
:1012D0000EDBEFD9AB01BC012AE080911C04909198
:1012E0001D041ADB65E672E080911C0490911D04D8
:1012F0005ADBDFD96093E0037093E1038093E2034C
:101300009093E3038DE393E0FFD8892B39F08DE3CD
:1013100093E0D8D89093E9028093E80262E187EEE7
:1013200092E053DB082F017010E01093E602009367
:10133000E50262E187EE92E048DB81FBEE24E0F813
:10134000F12CF092E402E092E30262E187EE92E097
:101350003CDB82FBCC24C0F8D12CD092E202C092BC
:10136000E102C091E802D091E902C027D127CE2541
:10137000DF25CC25DD25D093E002C093DF0264E1B8
:101380008EED92E022DBCC2319F0482F416002C0A1
:10139000482F4E7F62E18EED92E052DA52D9C1CEF3
:1013A000A1E21A2EAA1BBB1BFD010DC0AA1FBB1F69
:1013B000EE1FFF1FA217B307E407F50720F0A21BDB
:1013C000B30BE40BF50B661F771F881F991F1A9448
:1013D00069F760957095809590959B01AC01BD0172
:1013E000CF010895EE0FFF1F881F8BBF0790F69166
:1013F000E02D199481E090E0F89400C0F894FFCFBC
:1014000000000000BA0228025302000384026202B4
:10141000760200000000F203C30374049703BB03C9
:10142000A7039803564D4450565F317C315F564DAB
:101430004450560D0A002D2D2D5345545550205320
:10144000544152542D2D2D002D2D2D5345545550C2
:1014500020454E442D2D2D00564D4450455F003AF9
:0C146000323A007C005F564D44504500BD
:00000001FF
