:10000000FAC0000028C1000026C1000024C1000081
:1000100022C1000020C100001EC100001CC1000060
:100020001AC1000018C1000016C1000014C1000070
:1000300012C1000010C100000EC100000CC1000080
:100040000AC1000008C1000006C1000004C1000090
:1000500002C1000000C10000FEC00000B3C50000E6
:10006000FAC0000079C500004EC50000F4C00000D1
:10007000F2C00000F0C00000EEC00000ECC00000C4
:10008000EAC00000E8C00000E6C00000E4C00000D4
:10009000E2C00000E0C00000DEC00000DDC50000DE
:1000A000DAC00000D8C00000D6C00000D4C00000F4
:1000B000D2C00000D0C00000CEC00000CCC0000004
:1000C000CAC00000C8C00000C6C00000C4C0000014
:1000D000C2C00000C0C00000BEC00000BCC0000024
:1000E000BAC00000DF01E201D101D501D901190236
:1000F000E601EA01F001F401F801FE010202060244
:1001000019020C021002140200002200250028002F
:100110002B002E003100340002010000050108010F
:100120000B0105050505070508080808020202027B
:100130000A0A080804040404010101010101010183
:100140000303030303030303040707070C0C0C0C4E
:100150000C0C0C0C02020202060606060606060637
:100160000B0B0B0B0B0B0B0B0102102020080810C4
:100170002040102040800201020108040201010217
:1001800004081020408080402010080402018004F0
:10019000020180402010080402010804020101024B
:1001A0000408102040800102040810204080000054
:1001B0000A0B02090C0D0E080703040100000000E1
:1001C000000000000000000000000000000000002F
:1001D00000000000000000000000121110000000EC
:1001E000000000000000000000000000000000000F
:1001F000000000005D0711241FBECFEFD1E2DEBF7B
:10020000CDBF00E00CBF24E0ACE6B2E001C01D921F
:10021000AE32B207E1F712E0A0E0B2E0E0E0F4E1D4
:1002200000E00BBF02C007900D92AC36B107D9F7C2
:1002300010E0CBEFD0E000E006C021970109802F4D
:10024000FE010E94F209CA3FD10780E00807A9F722
:100250007FD60C94FE09D4CEEDE3F3E0A089B189FA
:1002600082E08C93A485B5851C92A685B7858FEC1A
:100270008C93108EA489B58986E08C93A289B3896A
:100280008C9180618C93A289B3898C9188608C93C6
:10029000A289B3898C9180688C930288F389E02DC0
:1002A00080818F7D80830895382F20913C03909129
:1002B0003B03213208F049C0809118038111FCCF23
:1002C00042E040931803309317033FEF3093160337
:1002D0001092150320931403ABE1B3E044EF52E016
:1002E000FA013E2F341B321718F43D913193F9CFA8
:1002F0001092F3022091F302990F922B9093F30244
:100300009091F202913061F41092F2029091F30216
:100310009093BB009091BC0093FDF8CF95EC01C089
:1003200095EE9093BC00909118039230E1F3909178
:1003300016039F3F79F080911603803241F080913F
:100340001603803331F084E005C081E003C082E011
:1003500001C083E010921A0310923C03109219031B
:10036000089590E0FC01E255FE4F4491FC01E859EC
:10037000FE4F2491FC01EE5DFE4F9491992309F408
:1003800066C0442309F455C050E0FA013197E231C8
:10039000F10508F04EC08827EE58FF4F8F4F0C94A0
:1003A000F209809180008F7707C0809180008F7D57
:1003B00003C080918000877F809380003AC084B51D
:1003C0008F7702C084B58F7D84BD33C08091B0002B
:1003D0008F7703C08091B0008F7D8093B00029C0DB
:1003E000809190008F7707C0809190008F7D03C02F
:1003F00080919000877F809390001BC08091A00027
:100400008F7707C08091A0008F7D03C08091A000EE
:10041000877F8093A0000DC0809120018F7707C057
:10042000809120018F7D03C080912001877F809380
:100430002001E92FF0E0EE0FFF1FE85FFE4FA591CE
:10044000B4918FB7F894EC912E2B2C938FBF089515
:10045000CF92DF92EF92FF920F931F93CF93DF9390
:100460006C017A018B01C0E0D0E0CE15DF0589F088
:10047000D8016D918D01D601ED91FC910190F08133
:10048000E02DC6011995892B11F47E0102C0219639
:10049000ECCFC701DF91CF911F910F91FF90EF90AB
:1004A000DF90CF900895FC01538D448D252F30E0CF
:1004B000842F90E0821B930B541710F0CF96089571
:1004C00001970895FC01918D828D981761F0828DBE
:1004D000DF01A80FB11D5D968C91928D9F5F9F7378
:1004E000928F90E008958FEF9FEF0895FC01918D1A
:1004F000828D981731F0828DE80FF11D858D90E087
:1005000008958FEF9FEF0895FC01918D228D892F23
:1005100090E0805C9F4F821B91098F73992708950B
:100520008DE393E0F1DF21E0892B09F420E0822FB5
:100530000895FC01848DDF01A80FB11DA35ABF4FA0
:100540002C91848D90E001968F739927848FA689D2
:10055000B7892C93A089B1898C9180648C93938DF9
:10056000848D981306C00288F389E02D80818F7DE9
:1005700080830895EF92FF920F931F93CF93DF93A1
:10058000EC0181E0888F9B8D8C8D981305C0E889E4
:10059000F989808185FD23C0F62E0B8D10E00F5F59
:1005A0001F4F0F731127E02E8C8DE8120BC00FB672
:1005B00007FCFACFE889F989808185FFF5CFCE0164
:1005C000B8DFF2CF8B8DFE01E80FF11DE35AFF4F2C
:1005D000F0820B8FEA89FB898081806207C0EE89F7
:1005E000FF896083E889F98980818064808381E064
:1005F00090E0DF91CF911F910F91FF90EF900895C0
:10060000CF93DF93EC01888D8823C1F0EA89FB89C1
:10061000808185FD05C0A889B9898C9186FD0EC0B1
:100620000FB607FCF5CF808185FFF2CFA889B98985
:100630008C9185FFEDCFCE017CDFE8CFDF91CF91AC
:10064000089580E090E0892B19F06ADF811125C0C0
:1006500080E090E0892B41F080E090E0892B21F050
:100660000E94000081111CC080E090E0892B41F0C5
:1006700080E090E0892B21F00E940000811113C0DE
:1006800080E090E0892BA1F080E090E0892B81F060
:100690000E94000081110AC008950E940000D8CF76
:1006A0000E940000E1CF0E940000EACF0C940000FD
:1006B00008952FB7F8946091DA027091DB0280916F
:1006C000DC029091DD022FBF089585ED8093BC0080
:1006D0008091BC0084FDFCCF1092180308954091D6
:1006E0008E02262F30E0240F311D21323105DCF43B
:1006F000209118032430C9F4FC0180E090E08617B3
:1007000058F430918E022191DC01A459BD4FA30F02
:10071000B11D2C930196F3CF80918E02680F6093E8
:100720008E0280E0089581E0089582E008950895A2
:10073000E091D4028091D302E81730F4F0E0ED5458
:10074000FD4F808190E008958FEF9FEF0895909185
:10075000D4028091D302981750F4E92FF0E0ED54C1
:10076000FD4F208130E09F5F9093D40202C02FEFB5
:100770003FEFC90108958091D30290E02091D40207
:10078000821B91090895CF92DF92EF92FF920F930F
:100790001F93CF93DF937C01262F972F8A0180919F
:1007A0001903882391F0C62FD72F6E01C40ED51ED2
:1007B000CC15DD0569F06991D701ED91FC910190AF
:1007C000F081E02DC7011995F3CF642F822F87DFC9
:1007D000C801DF91CF911F910F91FF90EF90DF90B3
:1007E000CF900895CF93DF931F92CDB7DEB7698383
:1007F000209119032223D1F020913C03203240F0B4
:1008000021E030E0FC013383228380E090E014C0DB
:1008100080911A03E82FF0E0E55EFC4F9981908308
:100820008F5F80931A0380933C0304C061E0CE0184
:10083000019655DF81E090E00F90DF91CF91089510
:10084000CF93DF931F92CDB7DEB7FC01808180622A
:1008500091E09093190380933B0310921A03109236
:100860003C0382E294E04983BDDF4981642F82E248
:1008700094E0B8DF81E00F90DF91CF9115CDCF9359
:10088000DF93EC01683008F067E068831092D402CF
:100890001092D30210921A0310923C031092180384
:1008A00081E0809317031092F20284E15ADD85E122
:1008B00058DD8091B9008E7F8093B9008091B90096
:1008C0008D7F8093B90088E48093B80085E480939D
:1008D000BC004FEF60E0CE01B3DF4FEF61E0CE012F
:1008E000DF91CF91ADCF089580E090E0089561153C
:1008F000710579F0FB0101900020E9F73197AF0114
:10090000461B570BDC01ED91FC910280F381E02D39
:10091000199480E090E008954F925F926F927F92D9
:10092000EF92FF920F931F93CF93DF93CDB7DEB774
:10093000A1970FB6F894DEBF0FBECDBF7C01FA01C0
:10094000CB0119A2223008F42AE08E010F5D1F4F5F
:10095000422E512C612C712CBF01A301920120D594
:10096000F901CA01015011096A3014F4605D01C037
:10097000695CD8016C93232B242B252B69F7B801D4
:10098000C701B5DFA1960FB6F894DEBF0FBECDBF8D
:10099000DF91CF911F910F91FF90EF907F906F901B
:1009A0005F904F9008950F931F93CF93DF93EC01C7
:1009B0009EDF8C0163E372E0CE0199DF800F911F0F
:1009C000DF91CF911F910F910895CF93DF93EC01A9
:1009D0009881906281E08093190390933B03109279
:1009E0001A0310923C0382E294E0FCDE81E05CDCBE
:1009F0008881909118039111FCCF91E09093180396
:100A0000909317032FEF2093160310921503109263
:100A100014039093F3029091F3028062880F892B64
:100A20008093F3028091F202813061F41092F2021D
:100A30008091F3028093BB008091BC0083FDF8CFCE
:100A400085EC01C085EE8093BC0080911803813055
:100A5000E1F380911503811103C08091150301C05A
:100A600081E0A4EFB2E023EB32E0F9019E2F921B6C
:100A7000981718F49D919193F9CF1092D402809316
:100A8000D30282E294E063DEDF91CF910895EF928A
:100A9000FF920F931F93CF93DF931F92CDB7DEB7D3
:100AA0007C0101E0683008F400E0162F1770602F19
:100AB000C70149838ADF498141110DC041E050E0FF
:100AC00060E070E004C0440F551F661F771F1A9541
:100AD000D2F7482B0DC041E050E060E070E004C068
:100AE000440F551F661F771F1A95D2F7409548236C
:100AF000602FC7010F90DF91CF911F910F91FF9051
:100B0000EF909ECE77D41F920F920FB60F921124C2
:100B10000BB60F922F933F934F935F936F937F93F7
:100B20008F939F93AF93BF93EF93FF938DE393E0E6
:100B300000DDFF91EF91BF91AF919F918F917F91D8
:100B40006F915F914F913F912F910F900BBE0F903E
:100B50000FBE0F901F9018951F920F920FB60F9215
:100B600011240BB60F922F938F939F93EF93FF93C4
:100B7000E0914D03F0914E038081E0915303F09199
:100B8000540382FD12C09081809156038F5F8F7352
:100B900020915703821751F0E0915603F0E0E35C97
:100BA000FC4F958F8093560301C08081FF91EF9198
:100BB0009F918F912F910F900BBE0F900FBE0F90B2
:100BC0001F9018951F920F920FB60F9211242F931A
:100BD0003F938F939F93AF93BF938091DA0290914D
:100BE000DB02A091DC02B091DD023091D90223E05A
:100BF000230F2D3720F40196A11DB11D05C026E855
:100C0000230F0296A11DB11D2093D9028093DA0211
:100C10009093DB02A093DC02B093DD028091D502B9
:100C20009091D602A091D702B091D8020196A11D51
:100C3000B11D8093D5029093D602A093D702B093B2
:100C4000D802BF91AF919F918F913F912F910F90BB
:100C50000FBE0F901F9018951F920F920FB60F9214
:100C600011240BB60F922F933F934F935F936F9383
:100C70007F938F939F93AF93BF93EF93FF93809155
:100C8000B900887F803609F49CC068F5883209F481
:100C90005BC090F4803109F454C038F4882309F41F
:100CA000F6C0883009F44DC0F5C0883109F44CC055
:100CB000803209F45DC0EEC0803409F468C048F4A5
:100CC000803309F455C0883309F0E4C080931603DB
:100CD000D8C0803509F44FC0883509F45DC0883428
:100CE00009F0D8C0D6C0883909F4C7C0A8F488373D
:100CF00009F467C038F4883609F463C0803709F412
:100D000060C0C8C0883809F4B8C0803909F45FC031
:100D1000803809F0BFC05BC0803B09F486C038F45E
:100D2000803A09F466C0883A09F47FC0B3C0803CB9
:100D300009F4A7C0883C09F4A4C0883B09F48AC020
:100D4000A9C08091F30210C0909115038091140303
:100D5000981770F5E091150381E08E0F80931503CD
:100D6000F0E0EC50FD4F80818093BB0085EC86C0A5
:100D7000809316038EC0E091150381E08E0F80935F
:100D800015038091BB00F0E0EC50FD4F8083909103
:100D90001503809114036EC0E091150381E08E0F5E
:100DA000809315038091BB00F0E0EC50FD4F8083F1
:100DB0008091170381116DC081E08093F20284EA73
:100DC00061C083E0809318031092B202CFCF80916C
:100DD000B202803208F051C0E091B20281E08E0F81
:100DE0008093B2028091BB00F0E0EE56FD4F80830D
:100DF000BDCF85EC8093BC00109218038091B202A5
:100E0000803230F4E091B202F0E0EE56FD4F1082F5
:100E10006091B20270E0E0919002F091910282E95B
:100E200092E019951092B20235C084E080931803C5
:100E300010928F0210928E02E0918C02F0918D023E
:100E4000199580918E02811105C081E080938E02F8
:100E500010926C02E0918F0281E08E0F80938F02DE
:100E6000F0E0E459FD4F80818093BB0090918F02A8
:100E700080918E02981708F479CF85E88093BC00A2
:100E800009C085EC8093BC001092180303C0109237
:100E900016031BDCFF91EF91BF91AF919F918F9152
:100EA0007F916F915F914F913F912F910F900BBE6A
:100EB0000F900FBE0F901F901895EDE3F3E0138293
:100EC000128288EE93E0A0E0B0E084839583A6834D
:100ED000B78324E032E03183208325EC30E035878E
:100EE000248724EC30E03787268720EC30E0318BF4
:100EF000208B21EC30E0338B228B22EC30E0358BE1
:100F0000248B26EC30E0378B268B118E128E138EBD
:100F1000148EEAEDF3E0168217821086118612868F
:100F200013861486158616861786108A118A128AE9
:100F3000138A148A158AE2E2F4E01382128284830F
:100F40009583A683B78386E192E091838083089599
:100F5000789484B5826084BD84B5816084BD85B594
:100F6000826085BD85B5816085BD80916E008160A0
:100F700080936E0010928100809181008260809346
:100F80008100809181008160809381008091800048
:100F90008160809380008091B10084608093B10073
:100FA0008091B00081608093B00080919100826058
:100FB0008093910080919100816080939100809155
:100FC00090008160809390008091A1008260809366
:100FD000A1008091A10081608093A1008091A00078
:100FE00081608093A0008091210182608093210123
:100FF0008091210181608093210180912001816095
:101000008093200180917A00846080937A0080919F
:101010007A00826080937A0080917A008160809368
:101020007A0080917A00806880937A001092C100E3
:1010300010921E0410921F0410922004109221049A
:101040001092DC031092DD031092DE031092DF0396
:1010500030DB2B013C014B015C0128EB820E2BE0C5
:10106000921EA11CB11C25DB64157505860597052C
:1010700028F086169706A806B906A8F78DE393E030
:1010800090931D0480931C04E7D864E272E0809181
:101090001C0490911D042BDC0CDB2B013C014B014B
:1010A0005C013AE0830E911CA11CB11C02DB6415AB
:1010B00075058605970528F086169706A806B906D1
:1010C000A8F781E08093F00366E372E08DE393E09C
:1010D0006ADCC2D860E087EE92E0D1DB40E060E0FD
:1010E00087EE92E0D4DC40E061E087EE92E0CFDC76
:1010F00040E062E087EE92E0CADC61E08EED92E0D3
:10110000BEDB41E060E08EED92E0C1DC68E472E0BD
:101110008DE393E048DC84EF882E99249394A12CEE
:10112000B12CC7DA672B682B692B39F4C2DA62302D
:1011300071058105910508F4E5C0BBDA6093EE0204
:101140007093EF028093F0029093F1024090EA02D4
:101150005090EB026090EC027090ED026415750502
:101160008605970540F46093EA027093EB02809342
:10117000EC029093ED024090EA025090EB026090F6
:10118000EC027090ED029B01AC012419350946096F
:10119000570929013A013AEF4316510461047104D9
:1011A00008F4B0C06093EA027093EB028093EC0203
:1011B0009093ED028092E8039092E903A092EA03F3
:1011C000B092EB031092EC031092ED031092EE0339
:1011D0001092EF038091E0039091E103A091E2036C
:1011E000B091E3038093E4039093E503A093E603B7
:1011F000B093E7035EDA6093E0037093E1038093BA
:10120000E2039093E30355DA2B013C0168E572E0B9
:1012100080911C0490911D046ADB2AE041E050E0BB
:1012200060E070E080911C0490911D0475DB6FE517
:1012300072E080911C0490911D0459DB2AE0B301F7
:10124000A20180911C0490911D0466DB61E672E0AE
:1012500080911C0490911D044ADB8091E0039091E1
:10126000E103A091E203B091E303B301A201481BA3
:10127000590B6A0B7B0B2AE080911C0490911D0492
:101280004BDB61E672E080911C0490911D042FDB22
:101290004091E0035091E1036091E2037091E30318
:1012A0008091E4039091E503A091E603B091E703F8
:1012B000481B590B6A0B7B0B2AE080911C04909110
:1012C0001D042ADB63E672E080911C0490911D04EA
:1012D0000EDBEFD9AB01BC012AE080911C04909198
:1012E0001D041ADB65E672E080911C0490911D04D8
:1012F0005ADBDFD96093E0037093E1038093E2034C
:101300009093E3038DE393E0FFD8892B39F08DE3CD
:1013100093E0D8D89093E9028093E80262E187EEE7
:1013200092E053DB082F017010E01093E602009367
:10133000E50262E187EE92E048DB81FBEE24E0F813
:10134000F12CF092E402E092E30262E187EE92E097
:101350003CDB82FBCC24C0F8D12CD092E202C092BC
:10136000E102C091E802D091E902C027D127CE2541
:10137000DF25CC25DD25D093E002C093DF0264E1B8
:101380008EED92E022DBCC2319F0482F416002C0A1
:10139000482F4E7F62E18EED92E052DA52D9C1CEF3
:1013A000A1E21A2EAA1BBB1BFD010DC0AA1FBB1F69
:1013B000EE1FFF1FA217B307E407F50720F0A21BDB
:1013C000B30BE40BF50B661F771F881F991F1A9448
:1013D00069F760957095809590959B01AC01BD0172
:1013E000CF010895EE0FFF1F881F8BBF0790F69166
:1013F000E02D199481E090E0F89400C0F894FFCFBC
:1014000000000000BA0228025302000384026202B4
:10141000760200000000F203C30374049703BB03C9
:10142000A7039803564D4450565F317C315F564DAB
:101430004450560D0A002D2D2D5345545550205320
:10144000544152542D2D2D002D2D2D5345545550C2
:1014500020454E442D2D2D00564D4450455F003AF9
:0C146000323A007C005F564D44504500BD
:020000023000CC
:10E000000D9489F10D94B2F10D94B2F10D94B2F129
:10E010000D94B2F10D94B2F10D94B2F10D94B2F1F0
:10E020000D94B2F10D94B2F10D94B2F10D94B2F1E0
:10E030000D94B2F10D94B2F10D94B2F10D94B2F1D0
:10E040000D94B2F10D94B2F10D94B2F10D94B2F1C0
:10E050000D94B2F10D94B2F10D94B2F10D94B2F1B0
:10E060000D94B2F10D94B2F10D94B2F10D94B2F1A0
:10E070000D94B2F10D94B2F10D94B2F10D94B2F190
:10E080000D94B2F10D94B2F10D94B2F10D94B2F180
:10E090000D94B2F10D94B2F10D94B2F10D94B2F170
:10E0A0000D94B2F10D94B2F10D94B2F10D94B2F160
:10E0B0000D94B2F10D94B2F10D94B2F10D94B2F150
:10E0C0000D94B2F10D94B2F10D94B2F10D94B2F140
:10E0D0000D94B2F10D94B2F10D94B2F10D94B2F130
:10E0E0000D94B2F141546D656761323536300041AF
:10E0F000726475696E6F206578706C6F72657220DE
:10E1000073746B3530305632206279204D4C530099
:10E11000426F6F746C6F616465723E004875683F52
:10E1200000436F6D70696C6564206F6E203D200048
:10E130004350552054797065202020203D20005FF9
:10E140005F4156525F415243485F5F3D2000415658
:10E1500052204C696243205665723D20004743437C
:10E160002056657273696F6E203D20004350552024
:10E1700049442020202020203D20004C6F7720663D
:10E18000757365202020203D20004869676820665F
:10E190007573652020203D200045787420667573D6
:10E1A00065202020203D20004C6F636B2066757336
:10E1B000652020203D20004D617220203720323024
:10E1C000313300312E362E3800342E332E350056A2
:10E1D00023202020414444522020206F7020636F70
:10E1E00064652020202020696E73747275637469E1
:10E1F0006F6E2061646472202020496E74657272B3
:10E20000757074006E6F20766563746F7200726A49
:10E210006D702020006A6D70200057686174207056
:10E220006F72743A00506F7274206E6F7420737541
:10E2300070706F72746564004D7573742062652030
:10E2400061206C6574746572002000577269747483
:10E25000696E672045450052656164696E672045B7
:10E26000450045452065727220636E743D00504F35
:10E27000525400303D5A65726F2061646472003FF1
:10E280003D43505520737461747300403D454550C3
:10E29000524F4D207465737400423D426C696E6B41
:10E2A000204C454400453D44756D70204545505215
:10E2B0004F4D00463D44756D7020464C415348001B
:10E2C000483D48656C70004C3D4C69737420492F83
:10E2D0004F20506F72747300513D51756974005234
:10E2E0003D44756D702052414D00563D73686F7707
:10E2F00020696E7465727275707420566563746FF0
:10E30000727300593D506F727420626C696E6B00BD
:10E310002A0011241FBECFEFD1E2DEBFCDBF01E046
:10E320000CBF12E0A0E0B2E0EEE1FDEF03E00BBFB6
:10E3300002C007900D92A030B107D9F712E0A0E01B
:10E34000B2E001C01D92AE30B107E1F70F9460F367
:10E350000D948DFE01E20EBF0FEF0DBF11241FBE05
:10E360000D9460F30D9400F020E030E040ED57E0B4
:10E3700005C0FA013197F1F72F5F3F4F2817390792
:10E38000C0F308959C01260F311DC901A0E0B0E043
:10E390002F5F3F4FABBFFC018791882361F08093D3
:10E3A000C6008091C00086FFFCCF8091C0008064D1
:10E3B0008093C000EACF08958DE08093C6008091DD
:10E3C000C00086FFFCCF8091C00080648093C000B5
:10E3D0008AE08093C6008091C00086FFFCCF8091C8
:10E3E000C00080648093C00008950F94C2F10F9420
:10E3F000DCF10895FC019081992359F09093C600B7
:10E400008091C00086FFFCCF8091C0008064809323
:10E41000C0003196992379F70895282F982F929567
:10E420009F70892F805D8A3308F0895F8093C600D2
:10E430008091C00086FFFCCF8091C00080648093F3
:10E44000C000822F8F70982F905D9A3308F0995FEB
:10E450009093C6008091C00086FFFCCF8091C000E1
:10E4600080648093C00008959C01FB01853691056E
:10E470001CF46330710594F0C90164E670E00F94F8
:10E480002EFE605D7F4F6093C6008091C00086FFC6
:10E49000FCCF8091C00080648093C0002B30310598
:10E4A00014F43297B4F0C90164E670E00F942EFEC4
:10E4B0006AE070E00F942EFE605D7F4F6093C600AF
:10E4C0008091C00086FFFCCF8091C0008064809363
:10E4D000C000C9016AE070E00F942EFEC0968093E0
:10E4E000C6008091C00086FFFCCF8091C000806490
:10E4F0008093C00008951F93182F8EE692EE60E07F
:10E500000F94C2F11093C6008091C00086FFFCCF2B
:10E510008091C00080648093C0000F94DCF11F9153
:10E5200008952F923F924F925F926F927F928F92B7
:10E530009F92AF92BF92CF92DF92EF92FF920F9392
:10E540001F93DF93CF93CDB7DEB762970FB6F894E2
:10E55000DEBF0FBECDBF382E622ECA01DB015C01CB
:10E560006D01772420E2222E2E010894411C511CBB
:10E570008BC081E0A81680E0B80681E0C80680E084
:10E58000D80628F0C601AA27BB270F940DF2BB2797
:10E59000AD2D9C2D8B2D0F940DF28A2D0F940DF225
:10E5A0002092C6008091C00086FFFCCF8091C00001
:10E5B00080648093C0009DE29093C6008091C0006B
:10E5C00086FFFCCF8091C00080648093C0002092C1
:10E5D000C6008091C00086FFFCCF8091C00080649F
:10E5E0008093C00019828601750188249924A1E0D6
:10E5F0003A1651F03A1620F0B2E03B1661F409C029
:10E600000BBFF701779007C0C7010F9477FE782EF4
:10E6100002C0F7017080872D0F940DF22092C60082
:10E620008091C00086FFFCCF8091C0008064809301
:10E63000C000872D8052F401EF70F0708F3520F408
:10E64000E40DF51D708204C0E40DF51D8EE280839B
:10E650000894E11CF11C011D111D0894811C911CE2
:10E6600090E18916910409F0C2CF80E190E0A0E02A
:10E67000B0E0A80EB91ECA1EDB1E198AC2010F9493
:10E68000FAF10F94DCF16A94662009F072CF629679
:10E690000FB6F894DEBF0FBECDBFCF91DF911F91B3
:10E6A0000F91FF90EF90DF90CF90BF90AF909F9031
:10E6B0008F907F906F905F904F903F902F90089534
:10E6C0002F923F924F925F926F927F928F929F9282
:10E6D000AF92BF92CF92DF92EF92FF920F931F9370
:10E6E000DF93CF93CDB7DEB7CD53D1400FB6F894BB
:10E6F000DEBF0FBECDBF01E20EBF0FEF0DBF94B75F
:10E70000F894A89514BE80916000886180936000A1
:10E7100010926000789493FF05C0E0910002F091A0
:10E7200001021995279A2F9A8091C00082608093E8
:10E73000C00080E18093C40088E18093C1000000A4
:10E74000EE24FF24870144E0A42EB12CCC24DD2448
:10E7500024C0C5010197F1F70894E11CF11C011DCB
:10E76000111D21E2E2162EE4F20620E0020720E06D
:10E77000120718F031E0C32ED12CC801B70127ECE5
:10E780003BE140E050E00F9441FE611571058105C9
:10E79000910519F485B1805885B98091C00087FD35
:10E7A00003C0C114D104A9F2A6014F5F5F4FC25E3E
:10E7B000DE4F59834883CE51D140C25EDE4F8881FF
:10E7C0009981CE51D140019711F00D9410FEC05D9A
:10E7D000DE4F19821882C053D14060E0C15DDE4F28
:10E7E0001882CF52D14088249924C35DDE4F19820C
:10E7F0001882CD52D140C05EDE4F188219821A8233
:10E800001B82C052D140CE5CDE4F188219821A8220
:10E810001B82C253D140EE24FF2487010BBFF701B6
:10E8200007911691C45CDE4F19830883CC53D14005
:10E830000D940BFEC25EDE4F28813981CE51D1404E
:10E840002130310509F52091C600C25EDE4F1982E4
:10E850001882CE51D14022C02F5F3F4F4F4F5F4FA4
:10E86000213082E138078AE7480780E0580780F0C6
:10E87000C45CDE4FE881F981CC53D140EF5FFF4F9C
:10E8800019F0EE27FF27099420E030E040E050E047
:10E890008091C00087FFE0CF2091C600C35DDE4FAE
:10E8A00048815981CD52D1404F5F5F4FC35DDE4FEC
:10E8B00059834883CD52D140213209F063C64A3092
:10E8C000510508F05FC60894811C911C53E0851621
:10E8D000910409F059C600E010E018C081E280936D
:10E8E000C6008091C00086FFFCCF8091C00080648C
:10E8F0008093C0002F5F3F4F2931310579F70F9486
:10E90000DCF10F5F1F4F0530110519F020E030E0FA
:10E91000E5CF10920A0210920B0210920C02109294
:10E920000D02109206021092070210920802109235
:10E930000902109202021092030210920402109235
:10E9400005028FEE90EE60E00F94F5F180E191EE1C
:10E9500060E00F94C2F18091C00087FFFCCF9091DE
:10E96000C600903608F09F759032B8F09093C600BC
:10E970008091C00086FFFCCF8091C00080648093AE
:10E98000C000A0E2A093C6008091C00086FFFCCF2B
:10E990008091C00080648093C000983409F4D7C18E
:10E9A0009934B8F4923409F459C1933458F490333B
:10E9B00019F1903308F4E3C59F33A1F1903409F0C5
:10E9C000DEC5BDC0953409F470C1963409F0D7C5D1
:10E9D00098C1923509F42BC2933538F49C3409F46C
:10E9E000F5C1913509F0CBC518C2963509F445C279
:10E9F000993509F0C4C567C483E792EE62E00F94CD
:10EA0000F5F110920602109207021092080210927D
:10EA1000090210920A0210920B0210920C0210923C
:10EA20000D0213C18FE792EE62E00F94F5F18FEEC5
:10EA300090EE60E00F94F5F181E291EE60E00F94CA
:10EA4000C2F187EB91EE60E00F94F5F180E391EE77
:10EA500060E00F94C2F184EE90EE60E00F94F5F167
:10EA60008FE391EE60E00F94C2F186E090E061E008
:10EA700070E00F9434F20F94DCF18DE591EE60E0DC
:10EA80000F94C2F189EC91EE60E00F94F5F18EE401
:10EA900091EE60E00F94C2F183EC91EE60E00F9490
:10EAA000F5F18CE691EE60E00F94C2F18EE10F94E7
:10EAB0000DF288E90F940DF281E00F940DF20F949E
:10EAC000DCF18BE791EE60E00F94C2F119E0E0E039
:10EAD000F0E010935700E4918E2F0F940DF20F94F5
:10EAE000DCF18AE891EE60E00F94C2F1E3E0F0E03F
:10EAF00010935700E4918E2F0F940DF20F94DCF1D8
:10EB000089E991EE60E00F94C2F1E2E0F0E0109349
:10EB10005700E4918E2F0F940DF20F94DCF188EAE8
:10EB200091EE60E00F94C2F1E1E0F0E01093570045
:10EB30001491812F0F940DF20F94DCF107CF8BE825
:10EB400092EE62E00F94F5F18BE492EE60E00F94A8
:10EB5000F5F10F94DCF100E010E019C0C8016F2D51
:10EB60000F947FFEFF2031F489E492EE60E00F9471
:10EB7000C2F10BC0F092C6008091C00086FFFCCFAE
:10EB80008091C00080648093C0000F5F1F4FC80158
:10EB900081519F41A0E0B0E0ABBFFC01F790BAE229
:10EBA000FB1621F0E2E000301E07C1F60F94DCF105
:10EBB0000F94DCF187E592EE60E00F94F5F10F948D
:10EBC000DCF1CC24DD2400E010E01EC0C8010F946D
:10EBD00077FEF82E882331F489E492EE60E00F94FA
:10EBE000C2F10BC08093C6008091C00086FFFCCFAD
:10EBF0008091C00080648093C000FE1419F00894D6
:10EC0000C11CD11C0F5F1F4FC80181519F41A0E063
:10EC1000B0E0ABBFFC01E790FAE2EF1621F022E092
:10EC20000030120799F60F94DCF10F94DCF182E6C4
:10EC300092EE60E00F94C2F1C60161E070E00F94C3
:10EC400034F20F94DCF10F94DCF110920202109276
:10EC50000302109204021092050278CE89E992EE26
:10EC600062E00F94F5F1279A2F9A16C02F9880E052
:10EC700090E0E0EDF7E03197F1F7019684369105E9
:10EC8000C1F72F9A80E090E0E0EDF7E03197F1F7DF
:10EC9000019684369105C1F78091C00087FFE6CFC9
:10ECA0008091C00087FFFCCF64C485EA92EE62E0E9
:10ECB0000F94F5F140910202509103026091040219
:10ECC0007091050281E020E10F9491F2809102029F
:10ECD00090910302A0910402B091050280509F4FD1
:10ECE000AF4FBF4F8093020290930302A0930402A0
:10ECF000B093050280509041A040B04008F426CE69
:10ED0000A4CF83EB92EE62E00F94F5F140910602FE
:10ED100050910702609108027091090280E020E1A1
:10ED20000F9491F28091060290910702A09108023F
:10ED3000B091090280509F4FAF4FBF4F80930602A2
:10ED400090930702A0930802B0930902FFCD80ECD4
:10ED500092EE62E00F94F5F183E792EE60E00F949B
:10ED6000F5F18FE792EE60E00F94F5F18BE892EE0B
:10ED700060E00F94F5F189E992EE60E00F94F5F10F
:10ED800085EA92EE60E00F94F5F183EB92EE60E09D
:10ED90000F94F5F180EC92EE60E00F94F5F187ECC2
:10EDA00092EE60E00F94F5F188ED92EE60E00F9442
:10EDB000F5F18FED92EE60E00F94F5F18AEE92EEB0
:10EDC00060E00F94F5F183E093EEBDCD87EC92EE19
:10EDD00062E00F94F5F181E40F947BF282E40F94EA
:10EDE0007BF283E40F947BF284E40F947BF285E45E
:10EDF0000F947BF286E40F947BF287E40F947BF20E
:10EE000088E40F947BF28AE40F947BF28BE40F94F6
:10EE10007BF28CE40F947BF299CD88ED92EE62E068
:10EE20000F94F5F1772473948824992409C48FED05
:10EE300092EE62E00F94F5F140910A0250910B02BC
:10EE400060910C0270910D0282E020E10F9491F22A
:10EE500080910A0290910B02A0910C02B0910D02D8
:10EE600080509F4FAF4FBF4F80930A0290930B0289
:10EE7000A0930C02B0930D0269CD8AEE92EE62E08F
:10EE80000F94F5F184EE90EE60E00F94F5F18FECC5
:10EE900091EE60E00F94F5F1662477244301CC5D98
:10EEA000DE4F19821882C452D140D401C301B695F5
:10EEB000A79597958795CA5DDE4F88839983AA8326
:10EEC000BB83C652D140CC5DDE4FA881B981C4520C
:10EED000D1401196CC5DDE4FB983A883C452D14096
:10EEE000CD0162E070E00F9434F2B0E2B093C6005E
:10EEF0008091C00086FFFCCF8091C0008064809329
:10EF0000C000EDE2E093C6008091C00086FFFCCF18
:10EF10008091C00080648093C000F0E2F093C6004E
:10EF20008091C00086FFFCCF8091C00080648093F8
:10EF3000C000CA5DDE4FE880F9800A811B81C6529D
:10EF4000D140BB27A12F902F8F2D0F940DF2CA5DBA
:10EF5000DE4F8881C652D1400F940DF2B0E2FB2EF5
:10EF6000F092C6008091C00086FFFCCF8091C00067
:10EF700080648093C0000DE30093C6008091C000C0
:10EF800086FFFCCF8091C00080648093C00010E2B7
:10EF90001093C6008091C00086FFFCCF8091C00016
:10EFA00080648093C0008BBEF3012791C65DDE4F65
:10EFB0002883CA52D140A22EBB24CC24DD2408943D
:10EFC000611C711C811C911C8BBEF3018791282E42
:10EFD0003324442455240894611C711C811C911C09
:10EFE0008BBEF3013791C55DDE4F3883CB52D140E4
:10EFF0000894611C711C811C911C8BBEF30147910C
:10F00000C45DDE4F4883CC52D140ADEFEA2EAFEF66
:10F01000FA2EAFEF0A2FAFEF1A2F6E0C7F1C801E57
:10F02000911E142D032DF22CEE24EA0CFB1C0C1D5A
:10F030001D1D0F940DF220E22093C6008091C000A8
:10F0400086FFFCCF8091C00080648093C000C65DC5
:10F05000DE4F8881CA52D1400F940DF230E23093D6
:10F06000C6008091C00086FFFCCF8091C000806404
:10F070008093C000C45DDE4F8881CC52D1400F9494
:10F080000DF240E24093C6008091C00086FFFCCFA5
:10F090008091C00080648093C000C55DDE4F888190
:10F0A000CB52D1400F940DF250E25093C6008091A4
:10F0B000C00086FFFCCF8091C00080648093C000B8
:10F0C0008FEFE8168FEFF80680E0080780E018075A
:10F0D00031F484E092EE60E00F94C2F1DFC0D80119
:10F0E000C7018070907CA070B0708050904CA040A0
:10F0F000B040D1F52FEF3FE340E050E0E222F322B1
:10F1000004231523CA5DDE4FA880B980CA80DB8046
:10F11000C652D140AE0CBF1CC01ED11EAA0CBB1CD7
:10F12000CC1CDD1C8EE092EE60E00F94C2F1BB2798
:10F13000A12F902F8F2D0F940DF28E2D0F940DF285
:10F1400030E23093C6008091C00086FFFCCF8091F2
:10F15000C00080648093C0004EE34093C60080915D
:10F16000C00086FFFCCF87C08EE09EEFA0E0B0E03D
:10F17000E822F9220A231B239CE0E91694E9F90608
:10F1800090E0090790E0190709F088C0C45DDE4FE0
:10F19000A881CC52D140EA2EFF2400E010E0102FCD
:10F1A0000F2DFE2CEE24C55DDE4FB881CB52D14031
:10F1B000EB0EF11C011D111DD601C501817090706F
:10F1C000A070B070DC0199278827E80EF91E0A1F8D
:10F1D0001B1F20EF30E040E050E0A222B322C42207
:10F1E000D52241E1AA0CBB1CCC1CDD1C4A95D1F7F1
:10F1F000EA0CFB1C0C1D1D1D81E090E0A0E0B0E0BE
:10F20000282239224A225B2235E1220C331C441C7D
:10F21000551C3A95D1F7E20CF31C041D151D57013E
:10F220006801AA0CBB1CCC1CDD1C85E192EE60E0E1
:10F230000F94C2F1C801AA27BB270F940DF2BB2778
:10F24000A12F902F8F2D0F940DF28E2D0F940DF274
:10F2500090E29093C6008091C00086FFFCCF809121
:10F26000C00080648093C000AEE3A093C60080918C
:10F27000C00086FFFCCF8091C00080648093C000F6
:10F28000C601AA27BB270F940DF2BB27AD2D9C2DDD
:10F290008B2D0F940DF28A2D0F940DF20F94DCF14B
:10F2A000CC5DDE4FE881F981C452D140F99709F471
:10F2B0004DCBF4E0EF2EF12C012D112D6E0C7F1CA7
:10F2C000801E911EF2CD83E093EE62E00F94F5F183
:10F2D0008AE192EE60E00F94C2F18091C00087FF56
:10F2E000FCCF1091C6001F751093C6008091C0001E
:10F2F00086FFFCCF8091C00080648093C0000F9493
:10F30000DCF1812F81548A3108F036C1163409F4BA
:10F3100095C0173490F4133409F44EC0143430F40B
:10F320001134F1F0123409F01DC130C0143409F465
:10F3300059C0153409F016C16BC01A3409F4C4C0A1
:10F340001B3438F4173409F48FC0183409F00AC19B
:10F35000A1C01B3409F4D2C01C3409F003C1E8C0B9
:10F360008FEF81B90DC082B1809582B980E090E0C5
:10F37000E0EDF7E03197F1F70196883C9105C1F790
:10F380008091C00087FFEFCF12B8EFC08FEF84B934
:10F390000DC085B1809585B980E090E0E0EDF7E0A3
:10F3A0003197F1F70196883C9105C1F78091C00033
:10F3B00087FFEFCF15B8D9C08FEF87B90DC088B1DF
:10F3C000809588B980E090E0E0EDF7E03197F1F7C3
:10F3D0000196883C9105C1F78091C00087FFEFCF6F
:10F3E00018B8C3C08FEF8AB90DC08BB180958BB9A7
:10F3F00080E090E0E0EDF7E03197F1F70196883C8E
:10F400009105C1F78091C00087FFEFCF1BB8ADC059
:10F410008FEF8DB90DC08EB180958EB980E090E0F0
:10F42000E0EDF7E03197F1F70196883C9105C1F7DF
:10F430008091C00087FFEFCF1EB897C08FEF80BBD1
:10F440000DC081B3809581BB80E090E0E0EDF7E0F6
:10F450003197F1F70196883C9105C1F78091C00082
:10F4600087FFEFCF11BA81C08FEF83BB0DC084B38C
:10F47000809584BB80E090E0E0EDF7E03197F1F714
:10F480000196883C9105C1F78091C00087FFEFCFBE
:10F4900014BA6BC08FEF809301010FC080910201FD
:10F4A00080958093020180E090E0E0EDF7E03197F5
:10F4B000F1F70196883C9105C1F78091C00087FF64
:10F4C000EDCF1092020151C08FEF809304010FC065
:10F4D0008091050180958093050180E090E0E0ED4A
:10F4E000F7E03197F1F70196883C9105C1F78091DB
:10F4F000C00087FFEDCF1092050137C08FEF8093DA
:10F5000007010FC08091080180958093080180E079
:10F5100090E0E0EDF7E03197F1F70196883C910536
:10F52000C1F78091C00087FFEDCF109208011DC088
:10F530008FEF80930A010FC080910B01809580931B
:10F540000B0180E090E0E0EDF7E03197F1F70196F4
:10F55000883C9105C1F78091C00087FFEDCF1092E4
:10F560000B0103C085E292EEEEC98091C00087FFD7
:10F57000FCCF8091C600EAC988E392EEE4C98CE131
:10F5800091EEE1C988249924933011F1943028F444
:10F59000913089F09230B8F408C0953061F195301F
:10F5A000F0F0963009F048C043C02B3109F042C951
:10F5B00091E06BE13FC96227C15DDE4F2883CF52E6
:10F5C000D14092E037C9B22FA0E0622793E032C960
:10F5D000822F90E0A82BB92B622794E02BC92E3004
:10F5E00009F039C3622795E0C05DDE4F19821882A9
:10F5F000C053D1401FC9E1E0F0E0EC0FFD1FC05D3A
:10F60000DE4F08811981C053D140E00FF11F2083E4
:10F610000F5F1F4FC05DDE4F19830883C053D14079
:10F6200062270A171B0709F005C9D80196E002C92D
:10F63000261709F010C303C0973009F0FBC87724E0
:10F640009981933109F412C19431C8F4963009F4C8
:10F65000D8C0973050F4923009F406C1933009F4C1
:10F660006DC0913009F059C253C0913109F477C08F
:10F67000923108F0BBC0903109F04FC2F5C098310B
:10F6800009F487C0993150F4953109F4EFC09531F0
:10F6900008F4C6C1963109F040C2C2C19A3109F4DA
:10F6A0006CC09A3108F491C09B3109F45BC09D3164
:10F6B00009F033C29D81903359F48F81882311F46E
:10F6C0009EE11CC0813011F091E018C098E916C08D
:10F6D000892F807591F0903539F4E0E0F0E089E011
:10F6E0008093570094910AC0983539F4E3E0F0E034
:10F6F00089E080935700949101C090E01A821B82A8
:10F700008D818C831D829E831F8227E030E009C299
:10F710001A8288E08B8381E48C8386E58D8382E581
:10F720008E8389E48F8383E5888780E589878FE5E9
:10F730008A8782E38B872BE030E0F3C18A818139AD
:10F7400041F0823941F0803911F48FE005C080E04A
:10F7500003C082E001C08AE01A828B8344C0772410
:10F76000739482C08D81882311F48EE12CC0813086
:10F7700011F081E028C088E926C01A82E1E0F0E0BB
:10F7800089E08093570084918B831C8224E030E0D1
:10F79000C8C18B81803589F48C81883039F4E2E0EE
:10F7A000F0E089E08093570084910DC0E0E0F0E044
:10F7B00089E080935700849106C0E3E0F0E089E09F
:10F7C0008093570084911A82DFCF8D81836C99E0FA
:10F7D000E1E0F0E0082E90935700E89507B600FCB2
:10F7E000FDCF1A821B8223E030E09BC180EC8A832C
:10F7F000CE5CDE4F188219821A821B82C253D1401E
:10F800008EC18A8190E0A0E0B0E0582F44273327D2
:10F8100022278B8190E0A0E0B0E0DC0199278827C7
:10F82000282B392B4A2B5B2B8D8190E0A0E0B0E098
:10F83000282B392B4A2B5B2B8C8190E0A0E0B0E089
:10F84000BA2FA92F982F8827282B392B4A2B5B2BCF
:10F85000220F331F441F551FC05EDE4F288339839C
:10F860004A835B83C052D1401A8259C13A81C95C34
:10F87000DE4F3883C753D140CA5CDE4F1882C6536F
:10F88000D1408B81C82EDD24CA5CDE4F488159816E
:10F89000C653D140C42AD52A933109F082C0CE5C28
:10F8A000DE4F88819981AA81BB81C253D1408050AB
:10F8B000904CA340B04030F583E0CE5CDE4FE88052
:10F8C000F9800A811B81C253D140F70100935B008C
:10F8D00080935700E89507B600FCFDCFCE5CDE4F65
:10F8E000088119812A813B81C253D14000501F4FAA
:10F8F0002F4F3F4FCE5CDE4F088319832A833B8313
:10F90000C253D140C05EDE4F488159816A817B81FC
:10F91000C052D140DE011B9631E08C9111962C91A2
:10F9200011971296C75CDE4F2883C953D140C85C3B
:10F93000DE4F1882C853D14090E0C85CDE4FE881AA
:10F94000F981C853D1408E2B9F2B0C01FA01609393
:10F950005B0030935700E89511244E5F5F4F6F4F67
:10F960007F4F0EEFE02E0FEFF02ECE0CDF1CC114F8
:10F97000D10499F685E0C05EDE4F088119812A81A5
:10F980003B81C052D140F80120935B008093570027
:10F99000E89507B600FCFDCF81E180935700E8951C
:10F9A00035C0C05EDE4F88819981AA81BB81C0527B
:10F9B000D140B695A795979587957C018601ABE0D8
:10F9C000AA2EB12CAC0EBD1E0BC0D5016D915D01F0
:10F9D000C7010F947FFE0894E11CF11C01501040F8
:10F9E0000115110591F7A60160E070E0440F551F65
:10F9F000661F771FC05EDE4FE880F9800A811B8199
:10FA0000C052D1404E0D5F1D601F711F1A82C05E33
:10FA1000DE4F488359836A837B83C052D1407FC0C5
:10FA2000FA80C55CDE4FF882CB53D140C65CDE4F16
:10FA30001882CA53D1408B81C82EDD24C65CDE4FAC
:10FA400008811981CA53D140C02AD12A1A828981DA
:10FA5000BE016D5F7F4F843121F59601C05EDE4FA0
:10FA6000E880F9800A811B81C052D1400BBFF701A9
:10FA700087919691DB018C9311969C936E5F7F4FDB
:10FA8000D801C7010296A11DB11DC05EDE4F88835B
:10FA90009983AA83BB83C052D14022503040F1F6F3
:10FAA00036C0C05EDE4F288139814A815B81C052F9
:10FAB000D1400894C108D108760100E010E0089414
:10FAC000C11CD11C0894E11CF11C011D111DE20E8A
:10FAD000F31E041F151F21BDBB27A52F942F832FB5
:10FAE00082BD2F5F3F4F4F4F5F4FF89A80B5DB01CC
:10FAF0008D93BD012E153F054007510761F7C05E8C
:10FB0000DE4F288339834A835B83C052D1409601FC
:10FB10002D5F3F4FFB01108204C080EC8A8322E0FE
:10FB200030E08BE18093C6008091C00086FFFCCF5F
:10FB30008091C00080648093C000C15DDE4FF88179
:10FB4000CF52D140F093C6008091C00086FFFCCF19
:10FB50008091C00080648093C000432F3093C60022
:10FB60008091C00086FFFCCF8091C00080648093AC
:10FB7000C000922F2093C6008091C00086FFFCCF6A
:10FB80008091C00080648093C0008EE08093C600A6
:10FB90008091C00086FFFCCF8091C000806480937C
:10FBA000C00065E1C15DDE4FE880CF52D1406E25D7
:10FBB00069276427FE01319610C090819093C6009A
:10FBC0008091C00086FFFCCF31968091C000806498
:10FBD0008093C0006927215030402115310569F715
:10FBE0006093C6008091C00086FFFCCF8091C0006A
:10FBF00080648093C00085B1805885B9772081F4F6
:10FC0000C15DDE4F0881CF52D1400F5FC15DDE4F35
:10FC10000883CF52D14090E0A0E0B0E00D941AF4F8
:10FC200027982F9880E090E020ED37E0F901319798
:10FC3000F1F7019684369105C9F700008091C00064
:10FC40008D7F8093C00081E180935700E895EE2777
:10FC5000FF270994FFCF90E00D941AF497FB092E2B
:10FC600007260AD077FD04D02ED006D000201AF443
:10FC7000709561957F4F0895F6F7909581959F4F08
:10FC80000895A1E21A2EAA1BBB1BFD010DC0AA1FDD
:10FC9000BB1FEE1FFF1FA217B307E407F50720F0F5
:10FCA000A21BB30BE40BF50B661F771F881F991F70
:10FCB0001A9469F760957095809590959B01AC01B9
:10FCC000BD01CF010895AA1BBB1B51E107C0AA1FAC
:10FCD000BB1FA617B70710F0A61BB70B881F991FED
:10FCE0005A95A9F780959095BC01CD010895F99991
:10FCF000FECF92BD81BDF89A992780B50895262F31
:10FD0000F999FECF1FBA92BD81BD20BD0FB6F89400
:0EFD1000FA9AF99A0FBE01960895F894FFCF63
:040000033000E000E9
:00000001FF